{
  "contractName": "User",
  "abi": [
    {
      "inputs": [
        {
          "internalType": "string",
          "name": "cid",
          "type": "string"
        }
      ],
      "name": "userCids",
      "outputs": [],
      "stateMutability": "nonpayable",
      "type": "function"
    },
    {
      "inputs": [
        {
          "internalType": "address",
          "name": "walletAddress",
          "type": "address"
        }
      ],
      "name": "getUserCids",
      "outputs": [
        {
          "internalType": "string[]",
          "name": "cids",
          "type": "string[]"
        }
      ],
      "stateMutability": "view",
      "type": "function",
      "constant": true
    }
  ],
  "bytecode": "0x608060405234801561001057600080fd5b506108c7806100206000396000f3fe608060405234801561001057600080fd5b50600436106100365760003560e01c80633c0cff701461003b578063530a85431461006b575b600080fd5b6100556004803603810190610050919061028a565b610087565b6040516100629190610409565b60405180910390f35b61008560048036038101906100809190610560565b6101a1565b005b60606000808373ffffffffffffffffffffffffffffffffffffffff1673ffffffffffffffffffffffffffffffffffffffff168152602001908152602001600020600001805480602002602001604051908101604052809291908181526020016000905b82821015610196578382906000526020600020018054610109906105d8565b80601f0160208091040260200160405190810160405280929190818152602001828054610135906105d8565b80156101825780601f1061015757610100808354040283529160200191610182565b820191906000526020600020905b81548152906001019060200180831161016557829003601f168201915b5050505050815260200190600101906100ea565b505050509050919050565b6000803373ffffffffffffffffffffffffffffffffffffffff1673ffffffffffffffffffffffffffffffffffffffff1681526020019081526020016000206000018190806001815401808255809150506001900390600052602060002001600090919091909150908161021491906107bf565b5050565b6000604051905090565b600080fd5b600080fd5b600073ffffffffffffffffffffffffffffffffffffffff82169050919050565b60006102578261022c565b9050919050565b6102678161024c565b811461027257600080fd5b50565b6000813590506102848161025e565b92915050565b6000602082840312156102a05761029f610222565b5b60006102ae84828501610275565b91505092915050565b600081519050919050565b600082825260208201905092915050565b6000819050602082019050919050565b600081519050919050565b600082825260208201905092915050565b60005b8381101561031d578082015181840152602081019050610302565b60008484015250505050565b6000601f19601f8301169050919050565b6000610345826102e3565b61034f81856102ee565b935061035f8185602086016102ff565b61036881610329565b840191505092915050565b600061037f838361033a565b905092915050565b6000602082019050919050565b600061039f826102b7565b6103a981856102c2565b9350836020820285016103bb856102d3565b8060005b858110156103f757848403895281516103d88582610373565b94506103e383610387565b925060208a019950506001810190506103bf565b50829750879550505050505092915050565b600060208201905081810360008301526104238184610394565b905092915050565b600080fd5b600080fd5b7f4e487b7100000000000000000000000000000000000000000000000000000000600052604160045260246000fd5b61046d82610329565b810181811067ffffffffffffffff8211171561048c5761048b610435565b5b80604052505050565b600061049f610218565b90506104ab8282610464565b919050565b600067ffffffffffffffff8211156104cb576104ca610435565b5b6104d482610329565b9050602081019050919050565b82818337600083830152505050565b60006105036104fe846104b0565b610495565b90508281526020810184848401111561051f5761051e610430565b5b61052a8482856104e1565b509392505050565b600082601f8301126105475761054661042b565b5b81356105578482602086016104f0565b91505092915050565b60006020828403121561057657610575610222565b5b600082013567ffffffffffffffff81111561059457610593610227565b5b6105a084828501610532565b91505092915050565b7f4e487b7100000000000000000000000000000000000000000000000000000000600052602260045260246000fd5b600060028204905060018216806105f057607f821691505b602082108103610603576106026105a9565b5b50919050565b60008190508160005260206000209050919050565b60006020601f8301049050919050565b600082821b905092915050565b60006008830261066b7fffffffffffffffffffffffffffffffffffffffffffffffffffffffffffffffff8261062e565b610675868361062e565b95508019841693508086168417925050509392505050565b6000819050919050565b6000819050919050565b60006106bc6106b76106b28461068d565b610697565b61068d565b9050919050565b6000819050919050565b6106d6836106a1565b6106ea6106e2826106c3565b84845461063b565b825550505050565b600090565b6106ff6106f2565b61070a8184846106cd565b505050565b5b8181101561072e576107236000826106f7565b600181019050610710565b5050565b601f8211156107735761074481610609565b61074d8461061e565b8101602085101561075c578190505b6107706107688561061e565b83018261070f565b50505b505050565b600082821c905092915050565b600061079660001984600802610778565b1980831691505092915050565b60006107af8383610785565b9150826002028217905092915050565b6107c8826102e3565b67ffffffffffffffff8111156107e1576107e0610435565b5b6107eb82546105d8565b6107f6828285610732565b600060209050601f8311600181146108295760008415610817578287015190505b61082185826107a3565b865550610889565b601f19841661083786610609565b60005b8281101561085f5784890151825560018201915060208501945060208101905061083a565b8683101561087c5784890151610878601f891682610785565b8355505b6001600288020188555050505b50505050505056fea26469706673582212202d7c38b89c734a40b47fd39985ac54efb8540cc696517d9220374a2868544cf964736f6c63430008130033",
  "immutableReferences": {},
  "source": "// SPDX-License-Identifier: GPL-3.0\n\npragma solidity >=0.7.0 <0.9.0;\ncontract User\n{\n    struct UserDetails\n    {\n        string[]cids;\n    }\n\n    mapping(address => UserDetails) users;\n\n    function userCids(string memory cid)public{\n        users[msg.sender].cids.push(cid);\n    }\n    \n    function getUserCids(address walletAddress) public view returns (string[] memory cids){\n        cids = users[walletAddress].cids;\n    }\n}",
  "sourcePath": "/Users/ishajasani/Desktop/Isha/BLOCKCHAIN-SGP/Virtual Vault/Virtual-Vault/contracts/User.sol",
  "compiler": {
    "name": "solc",
    "version": "0.8.19+commit.7dd6d404.Emscripten.clang"
  },
  "schemaVersion": "3.4.13",
  "updatedAt": "2023-03-28T17:43:21.894Z",
  "networkType": "ethereum",
  "devdoc": {
    "kind": "dev",
    "methods": {},
    "version": 1
  },
  "userdoc": {
    "kind": "user",
    "methods": {},
    "version": 1
  }
}